{
  "address": "0xf8B7524c3dbfDe0d3e6E06d371A06a9B7430333a",
  "abi": [
    {
      "inputs": [],
      "stateMutability": "nonpayable",
      "type": "constructor"
    },
    {
      "inputs": [
        {
          "internalType": "int256",
          "name": "errorCode",
          "type": "int256"
        }
      ],
      "name": "ActorError",
      "type": "error"
    },
    {
      "inputs": [],
      "name": "ActorNotFound",
      "type": "error"
    },
    {
      "inputs": [],
      "name": "FailToCallActor",
      "type": "error"
    },
    {
      "inputs": [],
      "name": "InvalidAddress",
      "type": "error"
    },
    {
      "inputs": [
        {
          "internalType": "uint64",
          "name": "",
          "type": "uint64"
        }
      ],
      "name": "InvalidCodec",
      "type": "error"
    },
    {
      "inputs": [],
      "name": "InvalidResponseLength",
      "type": "error"
    },
    {
      "inputs": [],
      "name": "NegativeValueNotAllowed",
      "type": "error"
    },
    {
      "inputs": [
        {
          "internalType": "uint256",
          "name": "balance",
          "type": "uint256"
        },
        {
          "internalType": "uint256",
          "name": "value",
          "type": "uint256"
        }
      ],
      "name": "NotEnoughBalance",
      "type": "error"
    },
    {
      "anonymous": false,
      "inputs": [
        {
          "indexed": true,
          "internalType": "bytes32",
          "name": "id",
          "type": "bytes32"
        },
        {
          "indexed": false,
          "internalType": "uint64",
          "name": "size",
          "type": "uint64"
        },
        {
          "indexed": true,
          "internalType": "bool",
          "name": "verified",
          "type": "bool"
        },
        {
          "indexed": false,
          "internalType": "uint256",
          "name": "price",
          "type": "uint256"
        }
      ],
      "name": "DealProposalCreate",
      "type": "event"
    },
    {
      "anonymous": false,
      "inputs": [
        {
          "indexed": false,
          "internalType": "string",
          "name": "received",
          "type": "string"
        }
      ],
      "name": "ReceivedDataCap",
      "type": "event"
    },
    {
      "inputs": [],
      "name": "AUTHENTICATE_MESSAGE_METHOD_NUM",
      "outputs": [
        {
          "internalType": "uint64",
          "name": "",
          "type": "uint64"
        }
      ],
      "stateMutability": "view",
      "type": "function"
    },
    {
      "inputs": [],
      "name": "DATACAP_ACTOR_ETH_ADDRESS",
      "outputs": [
        {
          "internalType": "address",
          "name": "",
          "type": "address"
        }
      ],
      "stateMutability": "view",
      "type": "function"
    },
    {
      "inputs": [],
      "name": "DATACAP_RECEIVER_HOOK_METHOD_NUM",
      "outputs": [
        {
          "internalType": "uint64",
          "name": "",
          "type": "uint64"
        }
      ],
      "stateMutability": "view",
      "type": "function"
    },
    {
      "inputs": [],
      "name": "MARKET_ACTOR_ETH_ADDRESS",
      "outputs": [
        {
          "internalType": "address",
          "name": "",
          "type": "address"
        }
      ],
      "stateMutability": "view",
      "type": "function"
    },
    {
      "inputs": [],
      "name": "MARKET_NOTIFY_DEAL_METHOD_NUM",
      "outputs": [
        {
          "internalType": "uint64",
          "name": "",
          "type": "uint64"
        }
      ],
      "stateMutability": "view",
      "type": "function"
    },
    {
      "inputs": [
        {
          "internalType": "uint256",
          "name": "value",
          "type": "uint256"
        }
      ],
      "name": "addBalance",
      "outputs": [],
      "stateMutability": "nonpayable",
      "type": "function"
    },
    {
      "inputs": [
        {
          "internalType": "bytes32",
          "name": "",
          "type": "bytes32"
        }
      ],
      "name": "dealRequestIdx",
      "outputs": [
        {
          "internalType": "uint256",
          "name": "idx",
          "type": "uint256"
        },
        {
          "internalType": "bool",
          "name": "valid",
          "type": "bool"
        }
      ],
      "stateMutability": "view",
      "type": "function"
    },
    {
      "inputs": [
        {
          "internalType": "uint256",
          "name": "",
          "type": "uint256"
        }
      ],
      "name": "dealRequests",
      "outputs": [
        {
          "internalType": "bytes",
          "name": "piece_cid",
          "type": "bytes"
        },
        {
          "internalType": "uint64",
          "name": "piece_size",
          "type": "uint64"
        },
        {
          "internalType": "bool",
          "name": "verified_deal",
          "type": "bool"
        },
        {
          "internalType": "string",
          "name": "label",
          "type": "string"
        },
        {
          "internalType": "int64",
          "name": "start_epoch",
          "type": "int64"
        },
        {
          "internalType": "int64",
          "name": "end_epoch",
          "type": "int64"
        },
        {
          "internalType": "uint256",
          "name": "storage_price_per_epoch",
          "type": "uint256"
        },
        {
          "internalType": "uint256",
          "name": "provider_collateral",
          "type": "uint256"
        },
        {
          "internalType": "uint256",
          "name": "client_collateral",
          "type": "uint256"
        },
        {
          "internalType": "uint64",
          "name": "extra_params_version",
          "type": "uint64"
        },
        {
          "components": [
            {
              "internalType": "string",
              "name": "location_ref",
              "type": "string"
            },
            {
              "internalType": "uint64",
              "name": "car_size",
              "type": "uint64"
            },
            {
              "internalType": "bool",
              "name": "skip_ipni_announce",
              "type": "bool"
            },
            {
              "internalType": "bool",
              "name": "remove_unsealed_copy",
              "type": "bool"
            }
          ],
          "internalType": "struct ExtraParamsV1",
          "name": "extra_params",
          "type": "tuple"
        }
      ],
      "stateMutability": "view",
      "type": "function"
    },
    {
      "inputs": [],
      "name": "dealsLength",
      "outputs": [
        {
          "internalType": "uint256",
          "name": "",
          "type": "uint256"
        }
      ],
      "stateMutability": "view",
      "type": "function"
    },
    {
      "inputs": [
        {
          "internalType": "uint256",
          "name": "index",
          "type": "uint256"
        }
      ],
      "name": "getDealByIndex",
      "outputs": [
        {
          "components": [
            {
              "internalType": "bytes",
              "name": "piece_cid",
              "type": "bytes"
            },
            {
              "internalType": "uint64",
              "name": "piece_size",
              "type": "uint64"
            },
            {
              "internalType": "bool",
              "name": "verified_deal",
              "type": "bool"
            },
            {
              "internalType": "string",
              "name": "label",
              "type": "string"
            },
            {
              "internalType": "int64",
              "name": "start_epoch",
              "type": "int64"
            },
            {
              "internalType": "int64",
              "name": "end_epoch",
              "type": "int64"
            },
            {
              "internalType": "uint256",
              "name": "storage_price_per_epoch",
              "type": "uint256"
            },
            {
              "internalType": "uint256",
              "name": "provider_collateral",
              "type": "uint256"
            },
            {
              "internalType": "uint256",
              "name": "client_collateral",
              "type": "uint256"
            },
            {
              "internalType": "uint64",
              "name": "extra_params_version",
              "type": "uint64"
            },
            {
              "components": [
                {
                  "internalType": "string",
                  "name": "location_ref",
                  "type": "string"
                },
                {
                  "internalType": "uint64",
                  "name": "car_size",
                  "type": "uint64"
                },
                {
                  "internalType": "bool",
                  "name": "skip_ipni_announce",
                  "type": "bool"
                },
                {
                  "internalType": "bool",
                  "name": "remove_unsealed_copy",
                  "type": "bool"
                }
              ],
              "internalType": "struct ExtraParamsV1",
              "name": "extra_params",
              "type": "tuple"
            }
          ],
          "internalType": "struct DealRequest",
          "name": "",
          "type": "tuple"
        }
      ],
      "stateMutability": "view",
      "type": "function"
    },
    {
      "inputs": [
        {
          "internalType": "bytes32",
          "name": "proposalId",
          "type": "bytes32"
        }
      ],
      "name": "getDealProposal",
      "outputs": [
        {
          "internalType": "bytes",
          "name": "",
          "type": "bytes"
        }
      ],
      "stateMutability": "view",
      "type": "function"
    },
    {
      "inputs": [
        {
          "internalType": "bytes32",
          "name": "proposalId",
          "type": "bytes32"
        }
      ],
      "name": "getExtraParams",
      "outputs": [
        {
          "internalType": "bytes",
          "name": "extra_params",
          "type": "bytes"
        }
      ],
      "stateMutability": "view",
      "type": "function"
    },
    {
      "inputs": [
        {
          "internalType": "bytes",
          "name": "cid",
          "type": "bytes"
        }
      ],
      "name": "getProposalIdSet",
      "outputs": [
        {
          "components": [
            {
              "internalType": "bytes32",
              "name": "requestId",
              "type": "bytes32"
            },
            {
              "internalType": "bool",
              "name": "valid",
              "type": "bool"
            }
          ],
          "internalType": "struct RequestId",
          "name": "",
          "type": "tuple"
        }
      ],
      "stateMutability": "view",
      "type": "function"
    },
    {
      "inputs": [
        {
          "internalType": "bytes",
          "name": "cid",
          "type": "bytes"
        }
      ],
      "name": "getProviderSet",
      "outputs": [
        {
          "components": [
            {
              "internalType": "bytes",
              "name": "provider",
              "type": "bytes"
            },
            {
              "internalType": "bool",
              "name": "valid",
              "type": "bool"
            }
          ],
          "internalType": "struct ProviderSet",
          "name": "",
          "type": "tuple"
        }
      ],
      "stateMutability": "view",
      "type": "function"
    },
    {
      "inputs": [
        {
          "internalType": "uint64",
          "name": "method",
          "type": "uint64"
        },
        {
          "internalType": "uint64",
          "name": "",
          "type": "uint64"
        },
        {
          "internalType": "bytes",
          "name": "params",
          "type": "bytes"
        }
      ],
      "name": "handle_filecoin_method",
      "outputs": [
        {
          "internalType": "uint32",
          "name": "",
          "type": "uint32"
        },
        {
          "internalType": "uint64",
          "name": "",
          "type": "uint64"
        },
        {
          "internalType": "bytes",
          "name": "",
          "type": "bytes"
        }
      ],
      "stateMutability": "nonpayable",
      "type": "function"
    },
    {
      "inputs": [
        {
          "components": [
            {
              "internalType": "bytes",
              "name": "piece_cid",
              "type": "bytes"
            },
            {
              "internalType": "uint64",
              "name": "piece_size",
              "type": "uint64"
            },
            {
              "internalType": "bool",
              "name": "verified_deal",
              "type": "bool"
            },
            {
              "internalType": "string",
              "name": "label",
              "type": "string"
            },
            {
              "internalType": "int64",
              "name": "start_epoch",
              "type": "int64"
            },
            {
              "internalType": "int64",
              "name": "end_epoch",
              "type": "int64"
            },
            {
              "internalType": "uint256",
              "name": "storage_price_per_epoch",
              "type": "uint256"
            },
            {
              "internalType": "uint256",
              "name": "provider_collateral",
              "type": "uint256"
            },
            {
              "internalType": "uint256",
              "name": "client_collateral",
              "type": "uint256"
            },
            {
              "internalType": "uint64",
              "name": "extra_params_version",
              "type": "uint64"
            },
            {
              "components": [
                {
                  "internalType": "string",
                  "name": "location_ref",
                  "type": "string"
                },
                {
                  "internalType": "uint64",
                  "name": "car_size",
                  "type": "uint64"
                },
                {
                  "internalType": "bool",
                  "name": "skip_ipni_announce",
                  "type": "bool"
                },
                {
                  "internalType": "bool",
                  "name": "remove_unsealed_copy",
                  "type": "bool"
                }
              ],
              "internalType": "struct ExtraParamsV1",
              "name": "extra_params",
              "type": "tuple"
            }
          ],
          "internalType": "struct DealRequest",
          "name": "deal",
          "type": "tuple"
        }
      ],
      "name": "makeDealProposal",
      "outputs": [
        {
          "internalType": "bytes32",
          "name": "",
          "type": "bytes32"
        }
      ],
      "stateMutability": "nonpayable",
      "type": "function"
    },
    {
      "inputs": [],
      "name": "owner",
      "outputs": [
        {
          "internalType": "address",
          "name": "",
          "type": "address"
        }
      ],
      "stateMutability": "view",
      "type": "function"
    },
    {
      "inputs": [
        {
          "internalType": "bytes",
          "name": "",
          "type": "bytes"
        }
      ],
      "name": "pieceDeals",
      "outputs": [
        {
          "internalType": "uint64",
          "name": "",
          "type": "uint64"
        }
      ],
      "stateMutability": "view",
      "type": "function"
    },
    {
      "inputs": [
        {
          "internalType": "bytes",
          "name": "",
          "type": "bytes"
        }
      ],
      "name": "pieceProviders",
      "outputs": [
        {
          "internalType": "bytes",
          "name": "provider",
          "type": "bytes"
        },
        {
          "internalType": "bool",
          "name": "valid",
          "type": "bool"
        }
      ],
      "stateMutability": "view",
      "type": "function"
    },
    {
      "inputs": [
        {
          "internalType": "bytes",
          "name": "",
          "type": "bytes"
        }
      ],
      "name": "pieceRequests",
      "outputs": [
        {
          "internalType": "bytes32",
          "name": "requestId",
          "type": "bytes32"
        },
        {
          "internalType": "bool",
          "name": "valid",
          "type": "bool"
        }
      ],
      "stateMutability": "view",
      "type": "function"
    },
    {
      "inputs": [
        {
          "internalType": "bytes",
          "name": "",
          "type": "bytes"
        }
      ],
      "name": "pieceStatus",
      "outputs": [
        {
          "internalType": "enum DealClient.Status",
          "name": "",
          "type": "uint8"
        }
      ],
      "stateMutability": "view",
      "type": "function"
    },
    {
      "inputs": [
        {
          "internalType": "bytes",
          "name": "pieceCid",
          "type": "bytes"
        }
      ],
      "name": "updateActivationStatus",
      "outputs": [],
      "stateMutability": "nonpayable",
      "type": "function"
    },
    {
      "inputs": [
        {
          "internalType": "address",
          "name": "client",
          "type": "address"
        },
        {
          "internalType": "uint256",
          "name": "value",
          "type": "uint256"
        }
      ],
      "name": "withdrawBalance",
      "outputs": [
        {
          "internalType": "uint256",
          "name": "",
          "type": "uint256"
        }
      ],
      "stateMutability": "nonpayable",
      "type": "function"
    }
  ],
  "transactionHash": "0xc917b8d4b288f200b5ff2c28f5a5d3718038fa954d6d58ba5489f7a6c44a464f",
  "args": [],
  "numDeployments": 1,
  "solcInputHash": "8a39585a9296f31db9a9d8a2e014a1b2",
  "bytecode": "0x608060405234801561001057600080fd5b50600680546001600160a01b03191633179055615bf680620000336000396000f3fe608060405234801561001057600080fd5b506004361061018c5760003560e01c8063868e10c4116100e3578063be965ce71161008c578063f44a890311610066578063f44a890314610426578063f4b2e4d814610446578063f82704f01461045957600080fd5b8063be965ce7146103e5578063d91921ed14610400578063dd27fe901461041357600080fd5b8063a6d1b7b8116100bd578063a6d1b7b81461036d578063b34ba252146103b0578063bad79de9146103bb57600080fd5b8063868e10c4146103185780638da5cb5b1461033a57806396925ae61461034d57600080fd5b806329aa3d2a116101455780636067f4541161011f5780636067f454146102d857806366263735146102e357806378133bb2146102f857600080fd5b806329aa3d2a146102515780634634aed5146102795780634e8a3ca41461029957600080fd5b80630cf20cc9116101765780630cf20cc9146101ee5780631adf7eb11461020e578063297ab4861461024957600080fd5b8062706790146101915780630a0e0c91146101b2575b600080fd5b61019c639d8b067881565b6040516101a99190613e73565b60405180910390f35b61019c6101c0366004613f79565b600481805160208101820180518482526020830160208501209152546001600160401b031693508492505050565b6102016101fc366004613ff4565b61047a565b6040516101a99190614037565b61023b61021c366004614045565b6000602052806000526040600020805460019091015490915060ff1682565b6040516101a992919061406e565b600154610201565b61026c73ff0000000000000000000000000000000000000581565b6040516101a99190614092565b61028c610287366004614045565b61050b565b6040516101a991906140fc565b61023b6102a7366004613f79565b600281805160208101820180518482526020830160208501209152805460019091015490945060ff16925084915050565b61019c63f98c996681565b6102f66102f1366004613f79565b61052f565b005b61030b610306366004614157565b610620565b6040516101a991906141ca565b61032b6103263660046141f5565b610710565b6040516101a99392919061426b565b60065461026c906001600160a01b031681565b61036061035b366004614045565b6107cc565b6040516101a991906143de565b6103a361037b366004613f79565b6005818051602081018201805184825260208301602085012091525460ff1693508492505050565b6040516101a99190614433565b61019c63de180de381565b6103ce6103c9366004614045565b610a8c565b6040516101a99b9a99989796959493929190614441565b61026c73ff0000000000000000000000000000000000000781565b6102f661040e366004614045565b610d05565b61020161042136600461450d565b610d31565b610439610434366004614157565b610f90565b6040516101a9919061456a565b61028c610454366004614045565b610fef565b61046c610467366004613f79565b6110d7565b6040516101a9929190614578565b6006546000906001600160a01b0316331461049457600080fd5b600060405180604001604052806104aa86611192565b81526020016104b8856111db565b9052905060006104c782611227565b90506000806104d583611271565b91509150806104ff5760405162461bcd60e51b81526004016104f69061461b565b60405180910390fd5b50925050505b92915050565b6060600061051883611308565b9050610528816101400151611618565b9392505050565b60006004826040516105419190614653565b9081526020016040518091039020546001600160401b0316116105765760405162461bcd60e51b81526004016104f6906146bc565b60006105a860048360405161058b9190614653565b9081526020016040518091039020546001600160401b0316611675565b90506000816020015160070b13156105fd5760046005836040516105cc9190614653565b9081526020016040518091039020805460ff191660018360048111156105f4576105f46143ef565b02179055505050565b6000815160070b131561061c5760036005836040516105cc9190614653565b5050565b61063b60405160408082019052606081526000602082015290565b6003838360405161064d9291906146df565b908152602001604051809103902060405180604001604052908160008201805461067690614702565b80601f01602080910402602001604051908101604052809291908181526020018280546106a290614702565b80156106ef5780601f106106c4576101008083540402835291602001916106ef565b820191906000526020600020905b8154815290600101906020018083116106d257829003601f168201915b50505091835250506001919091015460ff1615156020909101529392505050565b60008060608082639d8b0677196001600160401b0389160161076357610735866116c8565b600061074160016118b3565b905061074e8160016118d3565b610757816118ea565b925060519150506107bc565b63f98c9965196001600160401b038916016107865761078186611917565b6107bc565b63de180de2196001600160401b038916016107a45761078186611adb565b60405162461bcd60e51b81526004016104f690614782565b6000989097509095509350505050565b6107d4613c96565b600182815481106107e7576107e7614792565b90600052602060002090600a02016040518061016001604052908160008201805461081190614702565b80601f016020809104026020016040519081016040528092919081815260200182805461083d90614702565b801561088a5780601f1061085f5761010080835404028352916020019161088a565b820191906000526020600020905b81548152906001019060200180831161086d57829003601f168201915b505050918352505060018201546001600160401b0381166020830152600160401b900460ff16151560408201526002820180546060909201916108cc90614702565b80601f01602080910402602001604051908101604052809291908181526020018280546108f890614702565b80156109455780601f1061091a57610100808354040283529160200191610945565b820191906000526020600020905b81548152906001019060200180831161092857829003601f168201915b50505091835250506003820154600781810b6020840152600160401b909104810b6040808401919091526004840154606084015260058401546080840152600684015460a0840152908301546001600160401b031660c083015260e0909101906008830190518060800160405290816000820180546109c390614702565b80601f01602080910402602001604051908101604052809291908181526020018280546109ef90614702565b8015610a3c5780601f10610a1157610100808354040283529160200191610a3c565b820191906000526020600020905b815481529060010190602001808311610a1f57829003601f168201915b5050509183525050600191909101546001600160401b038116602083015260ff600160401b8204811615156040840152690100000000000000000090910416151560609091015290525092915050565b60018181548110610a9c57600080fd5b906000526020600020600a9091020180549091508190610abb90614702565b80601f0160208091040260200160405190810160405280929190818152602001828054610ae790614702565b8015610b345780601f10610b0957610100808354040283529160200191610b34565b820191906000526020600020905b815481529060010190602001808311610b1757829003601f168201915b50505050600183015460028401805493946001600160401b03831694600160401b90930460ff16935091610b6790614702565b80601f0160208091040260200160405190810160405280929190818152602001828054610b9390614702565b8015610be05780601f10610bb557610100808354040283529160200191610be0565b820191906000526020600020905b815481529060010190602001808311610bc357829003601f168201915b505050506003830154600484015460058501546006860154600780880154969785820b97600160401b90960490910b95509293919290916001600160401b03169060088101604051806080016040529081600082018054610c4090614702565b80601f0160208091040260200160405190810160405280929190818152602001828054610c6c90614702565b8015610cb95780601f10610c8e57610100808354040283529160200191610cb9565b820191906000526020600020905b815481529060010190602001808311610c9c57829003601f168201915b5050509183525050600191909101546001600160401b038116602083015260ff600160401b8204811615156040840152690100000000000000000090910416151560609091015290508b565b6006546001600160a01b03163314610d1c57600080fd5b610d2e610d2830611192565b82611b46565b50565b6006546000906001600160a01b03163314610d4b57600080fd5b60026005610d5984806147a8565b604051610d679291906146df565b90815260200160405180910390205460ff166004811115610d8a57610d8a6143ef565b1480610dd2575060036005610d9f84806147a8565b604051610dad9291906146df565b90815260200160405180910390205460ff166004811115610dd057610dd06143ef565b145b15610def5760405162461bcd60e51b81526004016104f690614860565b6001805480820182556000918252908390829060209020600a90910201610e168282614d63565b50506000423383604051602001610e2f93929190614d95565b60405160208183030381529060405280519060200120905060405160408082018152838252600160208084019190915260008481529081905220815181556020820151600191909101805460ff19169115159190911790555060405160408082019052818152600160208201526002610ea886806147a8565b604051610eb69291906146df565b90815260200160405180910390208151815560208201516001918201805460ff191691151591909117905590506005610eef86806147a8565b604051610efd9291906146df565b9081526020016040518091039020805460ff19166001836004811115610f2557610f256143ef565b0217905550610f3a6060850160408601614dd7565b1515817ffd6419d07e4c269e58d0c63969756c2124155b4a8d6dd08b8cd46e3a9acbf625610f6e6040880160208901614df8565b8760c00135604051610f81929190614e19565b60405180910390a39392505050565b610faa604051604080820190526000808252602082015290565b60028383604051610fbc9291906146df565b9081526020016040518091039020604051604081810190528154815260019091015460ff16151560208201529392505050565b60606000610ffc83611308565b9050611006613d30565b604051602081016040528083519052815260208201516001600160401b0316602082015260408201511515604082015261103f30611192565b606082015261104e6000611b92565b6080820152604051806040016040528083606001518152600160209091015260a0820152608082015160070b60c082015260a082015160070b60e082015261109960c08301516111db565b6101008201526110ac60e08301516111db565b6101208201526110c06101008301516111db565b6101408201526110cf81611bea565b949350505050565b600381805160208101820180518482526020830160208501209152805490945084935061110692509050614702565b80601f016020809104026020016040519081016040528092919081815260200182805461113290614702565b801561117f5780601f106111545761010080835404028352916020019161117f565b820191906000526020600020905b81548152906001019060200180831161116257829003601f168201915b5050506001909301549192505060ff1682565b6111a6604051602081016040526060815290565b6040518060200160405280836040516020016111c29190614e34565b6040516020818303038152906040528152509050919050565b6111f660405160408082019052606081526000602082015290565b6000611203836000611e07565b90506040516040808201905280825181526020018260200151151590529392505050565b61124260405160408082019052606081526000602082015290565b600061124d83611e58565b9050600061126660056387ed0a64605185600080611eef565b90506110cf81611ffe565b6000808260200151156112b0576040517f83041cea00000000000000000000000000000000000000000000000000000000815260040160405180910390fd5b60006112bf6000196000611e07565b905060006112d285518660200151612092565b90506112de81836120c4565b156112f157506000946001945092505050565b80516112fc90614e79565b95600095509350505050565b611310613c96565b6000828152602081905260408120604051604080820190528154815260019091015460ff161515602082019081529091505161135e5760405162461bcd60e51b81526004016104f690614ef3565b600181518154811061137257611372614792565b90600052602060002090600a02016040518061016001604052908160008201805461139c90614702565b80601f01602080910402602001604051908101604052809291908181526020018280546113c890614702565b80156114155780601f106113ea57610100808354040283529160200191611415565b820191906000526020600020905b8154815290600101906020018083116113f857829003601f168201915b505050918352505060018201546001600160401b0381166020830152600160401b900460ff161515604082015260028201805460609092019161145790614702565b80601f016020809104026020016040519081016040528092919081815260200182805461148390614702565b80156114d05780601f106114a5576101008083540402835291602001916114d0565b820191906000526020600020905b8154815290600101906020018083116114b357829003601f168201915b50505091835250506003820154600781810b6020840152600160401b909104810b6040808401919091526004840154606084015260058401546080840152600684015460a0840152908301546001600160401b031660c083015260e09091019060088301905180608001604052908160008201805461154e90614702565b80601f016020809104026020016040519081016040528092919081815260200182805461157a90614702565b80156115c75780601f1061159c576101008083540402835291602001916115c7565b820191906000526020600020905b8154815290600101906020018083116115aa57829003601f168201915b5050509183525050600191909101546001600160401b038116602083015260ff600160401b820481161515604084015269010000000000000000009091041615156060909101529052509392505050565b6060600061162660406118b3565b90506116338160046120ee565b61163f835182906120fa565b61164e83602001518290612118565b61165d836040015182906118d3565b61166c836060015182906118d3565b610528816118ea565b61168f604051604080820190526000808252602082015290565b60006116a3836001600160401b0316612124565b905060006116bd6005639904f2ff60518560006001611eef565b90506110cf8161215c565b3373ff00000000000000000000000000000000000005146116fb5760405162461bcd60e51b81526004016104f690614f5d565b6000611706826121c6565b905060006117178260200151612228565b9050600081515190506002816040516117309190614653565b90815260200160405180910390206001015460ff166117615760405162461bcd60e51b81526004016104f690614fc7565b6003816040516117719190614653565b90815260200160405180910390206001015460ff16156117a35760405162461bcd60e51b81526004016104f690615031565b60006117cc6002836040516117b89190614653565b908152602001604051809103902054611308565b90508060400151151583604001511515146117f95760405162461bcd60e51b81526004016104f690615075565b60008061180a856101000151611271565b91509150801561182c5760405162461bcd60e51b81526004016104f690615105565b60008061183d876101400151611271565b91509150801561185f5760405162461bcd60e51b81526004016104f690615105565b8460c001518411156118835760405162461bcd60e51b81526004016104f69061516f565b8461010001518211156118a85760405162461bcd60e51b81526004016104f6906151d9565b505050505050505050565b6118bb613e2f565b6118c6815183612375565b5060006020820152919050565b61061c82826118e35760146123f2565b60156123f2565b606081602001511561190e5760405162461bcd60e51b81526004016104f69061521d565b81515192915050565b3373ff000000000000000000000000000000000000051461194a5760405162461bcd60e51b81526004016104f690614f5d565b600061195582612401565b905060006119638251612228565b905060028151516040516119779190614653565b90815260200160405180910390206001015460ff166119a85760405162461bcd60e51b81526004016104f690614fc7565b60038151516040516119ba9190614653565b90815260200160405180910390206001015460ff16156119ec5760405162461bcd60e51b81526004016104f690615031565b6040518060400160405280826080015151815260016020909101526003825151604051611a199190614653565b908152602001604051809103902081518190611a35908261522d565b506020820151600191909101805460ff19169115159190911790555060208201516004825151604051611a689190614653565b9081526020016040518091039020805467ffffffffffffffff19166001600160401b039290921691909117905560026005825151604051611aa99190614653565b9081526020016040518091039020805460ff19166001836004811115611ad157611ad16143ef565b0217905550505050565b3373ff0000000000000000000000000000000000000714611b0e5760405162461bcd60e51b81526004016104f690615364565b7f10aa319ed8cad9bceb033c0c2788c4ae17469ac844e4c6e2c2e20e74ca8a7be8604051611b3b906153a8565b60405180910390a150565b6000611b518361246d565b90506000611b6a6005633105f1a6605185876000611eef565b9050805115611b8c57604051630e74990760e01b815260040160405180910390fd5b50505050565b611ba6604051602081016040526060815290565b6000611bb183612496565b905060405160208101604052808251604051602001611bd091906153c5565b604051602081830303815290604052815250915050919050565b6060600080611bfd8461010001516124f7565b90506000611c0f8561012001516124f7565b90506000611c218661014001516124f7565b9050611c2d600b612615565b611c3790856153f2565b9350611c44865151612663565b611c4e90856153f2565b9350611c6686602001516001600160401b0316612615565b611c7090856153f2565b9350611c7a61267b565b611c8490856153f2565b9350611c9486606001515161268c565b611c9e90856153f2565b9350611cae86608001515161268c565b611cb890856153f2565b9350611cc88660a001515161268c565b611cd290856153f2565b9350611ce18660c0015161269a565b611ceb90856153f2565b9350611cfa8660e0015161269a565b611d0490856153f2565b9350611d0f8361268c565b611d1990856153f2565b9350611d248261268c565b611d2e90856153f2565b9350611d398161268c565b611d4390856153f2565b93506000611d50856118b3565b9050611d5d81600b6120ee565b611d6a87515182906126dd565b611d7987602001518290612118565b611d88876040015182906118d3565b611d98876060015151829061272b565b611da8876080015151829061272b565b611db78760a001518290612738565b611dc68760c001518290612759565b611dd58760e001518290612759565b611ddf818561272b565b611de9818461272b565b611df3818361272b565b611dfc816118ea565b979650505050505050565b611e2d604051806060016040528060608152602001600015158152602001600081525090565b61052883604051602001611e419190615405565b604051602081830303815290604052836000612763565b6060600080611e6a84602001516124f7565b9050611e766002612615565b611e8090836153f2565b9150611e8d84515161268c565b611e9790836153f2565b9150611ea28161268c565b611eac90836153f2565b91506000611eb9836118b3565b9050611ec68160026120ee565b611ed3855151829061272b565b611edd818361272b565b611ee6816118ea565b95945050505050565b6060611f0f73fe0000000000000000000000000000000000000584612838565b60008073fe00000000000000000000000000000000000005888686611f35576000611f38565b60015b8a8a8e604051602001611f5096959493929190615423565b604051602081830303815290604052604051611f6c9190614653565b600060405180830381855af49150503d8060008114611fa7576040513d603f01601f191681016040523d815291503d6000602084013e611fac565b606091505b509150915081611fe8576040517f8a7db5bf00000000000000000000000000000000000000000000000000000000815260040160405180910390fd5b611ff1816128b2565b9998505050505050505050565b61201960405160408082019052606081526000602082015290565b6060600080845111156120485761203084826129bb565b9092509050600082511115612048576110cf82612b2e565b60405160408082019052806000604051818152601f19601f830116810160200160405290801561207f576020820181803683370190505b5081526000602090910152949350505050565b6120b8604051806060016040528060608152602001600015158152602001600081525090565b61052883836000612763565b6000806120d384846001612c94565b9050806001146120e45760006110cf565b6001949350505050565b61061c82600483612dd4565b6121078260038351612ddb565b61211381835190612ef8565b505050565b61061c82600083612ddb565b6060600061213a836001600160401b0316612615565b90506000612147826118b3565b90506121538185612118565b6110cf816118ea565b612176604051604080820190526000808252602082015290565b6000806121838482612f1f565b925090506002811461219757612197615479565b6121a18483612f6b565b60079190910b845291506121b58483612f6b565b5060070b6020840152509092915050565b6121e0604051604080820190526060808252602082015290565b6000806121ed8482612f1f565b925090506002811461220157612201615479565b61220b84836129bb565b908452915061221a84836129bb565b506020840152509092915050565b612230613d30565b600080606061223f8583612f1f565b93509150600b821461225357612253615479565b61225d8584612f85565b908552925061226c858461312e565b6001600160401b0390911660208601529250612288858461316f565b9015156040860152925061229c85846129bb565b935090506122a9816131da565b60608501526122b885846129bb565b935090506122c5816131da565b60808501526122d4858461323e565b60a086019190915292506122e88584612f6b565b60079190910b60c086015292506122ff8584612f6b565b60079190910b60e08601529250606061231886856129bb565b9450905061232581612b2e565b610100860152606061233787866129bb565b9550905061234481612b2e565b610120870152606061235688876129bb565b9650905061236381612b2e565b61014088015250949695505050505050565b61239060405160408082019052606081526000602082015290565b61239b6020836154a5565b156123c3576123ab6020836154a5565b6123b69060206154b9565b6123c090836153f2565b91505b6020830182905260405180845260008152828101602001818110156123e757600080fd5b604052509192915050565b61211360e08217835190613398565b61241c60405160408082019052606081526000602082015290565b6000806124298482612f1f565b925090506002811461243d5761243d615479565b61244784836129bb565b9084529150612456848361312e565b506001600160401b03166020840152509092915050565b6060600061247b835161268c565b90506000612488826118b3565b90506121538451829061272b565b6124b160405160408082019052606081526000602082015290565b6701ffffffffffffff600783901c1691607f1660008390036124de576124d78282613398565b5050919050565b6124eb8260808317613398565b50506124b1565b919050565b606060008251516125099060016153f2565b6001600160401b0381111561252057612520613e81565b604051818152601f19601f830116810160200160405290801561254a576020820181803683370190505b50905082602001511515600114612562576000612568565b600160f81b5b8160008151811061257b5761257b614792565b60200101906001600160f81b031916908160001a905350600160005b84515181101561260c57845181815181106125b4576125b4614792565b60200101516001600160f81b0319168383815181106125d5576125d5614792565b60200101906001600160f81b031916908160001a905350816125f6816154cc565b9250508080612604906154cc565b915050612597565b50909392505050565b60006017821161262757506001919050565b60ff821161263757506002919050565b61ffff821161264857506003919050565b63ffffffff821161265b57506005919050565b506009919050565b600081516126716002612615565b61050591906153f2565b60006126876001612615565b905090565b600081516126718351612615565b600081600781900b82136126ba57610528816001600160401b0316612615565b6105286126c9826000196154df565b6001600160401b0316612615565b50919050565b6126ea60d8835190613398565b506126f8602a835190613398565b5061061c8160405160200161270d9190615522565b6040516020818303038152906040528361272b90919063ffffffff16565b6121078260028351612ddb565b806020015161274d5761061c8151839061272b565b61061c815183906120fa565b61061c828261340b565b612789604051806060016040528060608152602001600015158152602001600081525090565b602084018451600059601f831615600181146127b757601f84166020908103808601845283010192506127c1565b6020820192508382525b508282848660046101c2fa506020815101810160405280515b60208114612808576000602083015114600181146127f85750612808565b60208301925050601f19016127da565b81528452505050602081018390528115612822578161282c565b61282c8151613439565b60408201529392505050565b47818110156128775780826040517f8f0f42060000000000000000000000000000000000000000000000000000000081526004016104f6929190615537565b823f151580611b8c576040517f64d954b000000000000000000000000000000000000000000000000000000000815260040160405180910390fd5b6060600080806020850185518101906128cb91906155bb565b919450925090506001600160401b0382166129055780511561290057604051630e74990760e01b815260040160405180910390fd5b612981565b6001600160401b0382166051148061292657506001600160401b0382166071145b1561294d57805160000361290057604051630e74990760e01b815260040160405180910390fd5b816040517ff1f6bced0000000000000000000000000000000000000000000000000000000081526004016104f69190613e73565b82156110cf57826040517fd4bb66710000000000000000000000000000000000000000000000000000000081526004016104f69190614037565b606060008060006129cc8686613477565b96509092506001600160401b0316905060ff8216600614806129f1575060ff82166002145b612a0d5760405162461bcd60e51b81526004016104f690615675565b60051960ff831601612a4657612a238686613477565b96509092506001600160401b0316905060ff8216600214612a4657612a46615479565b6000612a5282876153f2565b90506000826001600160401b03811115612a6e57612a6e613e81565b604051818152601f19601f8301168101602001604052908015612a98576020820181803683370190505b5090506000875b83811015612b1157898181518110612ab957612ab9614792565b60200101516001600160f81b031916838381518110612ada57612ada614792565b60200101906001600160f81b031916908160001a90535081612afb816154cc565b9250508080612b09906154cc565b915050612a9f565b5081612b1d858a6153f2565b9650965050505050505b9250929050565b612b4960405160408082019052606081526000602082015290565b8151600003612b8157604051806040016040528060405160408082019052600181526000602080830182905291835291015292915050565b600060018351612b9191906154b9565b6001600160401b03811115612ba857612ba8613e81565b604051818152601f19601f8301168101602001604052908015612bd2576020820181803683370190505b509050600083600081518110612bea57612bea614792565b60200101516001600160f81b031916600160f81b03612c07575060015b60015b8451811015612c7957848181518110612c2557612c25614792565b60200101516001600160f81b03191683612c406001846154b9565b81518110612c5057612c50614792565b60200101906001600160f81b031916908160001a90535080612c71816154cc565b915050612c0a565b50604051604080820190529182521515602082015292915050565b600060018215612d0d5784602001518015612cb0575083602001515b15612cbe5750600019612d0d565b8460200151158015612cd65750836020015115156001145b15612ce5576001915050610528565b846020015115156001148015612cfd57508360200151155b15612d0d57600019915050610528565b836040015185604001511115612d24579050610528565b846040015184604001511115612d4857612d4081600019615685565b915050610528565b600080808080895151905060208a510194506020895101935060005b81811015612dc35780860151935080850151925082841115612d8f5786975050505050505050610528565b83831115612db157612da387600019615685565b975050505050505050610528565b612dbc6020826153f2565b9050612d64565b5060009a9950505050505050505050565b6121138383835b6017816001600160401b031611612e0157611b8c60e0600584901b168217845190613398565b60ff816001600160401b031611612e4257612e296018611fe0600585901b1617845190613398565b50611b8c6001600160401b0382166001855191906135f4565b61ffff816001600160401b031611612e8457612e6b6019611fe0600585901b1617845190613398565b50611b8c6001600160401b0382166002855191906135f4565b63ffffffff816001600160401b031611612ec857612eaf601a611fe0600585901b1617845190613398565b50611b8c6001600160401b0382166004855191906135f4565b612edf601b611fe0600585901b1617845190613398565b50611b8c6001600160401b0382166008855191906135f4565b612f1360405160408082019052606081526000602082015290565b61052883838451613683565b600080600080612f2f8686613477565b96509092506001600160401b0316905060ff8216600414612f625760405162461bcd60e51b81526004016104f6906156f1565b95939450505050565b60008080612f79858561375d565b90969095509350505050565b612f99604051602081016040526060815290565b60008080612fa78686613477565b96509092506001600160401b0316905060ff8216600614612fda5760405162461bcd60e51b81526004016104f69061575b565b602a8114612ffa5760405162461bcd60e51b81526004016104f69061579d565b606061300687876129bb565b965090508060008151811061301d5761301d614792565b60200101516001600160f81b031916156130495760405162461bcd60e51b81526004016104f690615807565b61305d604051602081016040526060815290565b6001825161306b91906154b9565b6001600160401b0381111561308257613082613e81565b604051818152601f19601f83011681016020016040529080156130ac576020820181803683370190505b50815260015b8251811015613122578281815181106130cd576130cd614792565b60200101516001600160f81b03191682516130e96001846154b9565b815181106130f9576130f9614792565b60200101906001600160f81b031916908160001a9053508061311a816154cc565b9150506130b2565b50979596505050505050565b60008060008061313e8686613477565b96509092506001600160401b0316905060ff821615612f625760405162461bcd60e51b81526004016104f690615871565b60008060008061317f8686613477565b96509092506001600160401b0316905060ff82166007146131b25760405162461bcd60e51b81526004016104f6906158b5565b60158114806131c15750601481145b6131cd576131cd615479565b6014141595939450505050565b6131ee604051602081016040526060815290565b6000604051602081016040528381529050613208816137ac565b610505576040517fe6c4247b00000000000000000000000000000000000000000000000000000000815260040160405180910390fd5b61325960405160408082019052606081526000602082015290565b60008060006132688686613477565b96509092506001600160401b0316905060ff82166002148061328d575060ff82166003145b6132a95760405162461bcd60e51b81526004016104f69061591f565b60006132b582876153f2565b90506000826001600160401b038111156132d1576132d1613e81565b604051818152601f19601f83011681016020016040529080156132fb576020820181803683370190505b5090506000875b838110156133745789818151811061331c5761331c614792565b60200101516001600160f81b03191683838151811061333d5761333d614792565b60200101906001600160f81b031916908160001a9053508161335e816154cc565b925050808061336c906154cc565b915050613302565b506040516040808201905282815260ff86166003146020820152612b1d858a6153f2565b6133b360405160408082019052606081526000602082015290565b6000835151905060006133c78260016153f2565b9050846020015182106133e8576133e8856133e383600261592f565b613924565b84516020838201018581538151831115613400578282525b509495945050505050565b60008160070b126134225761061c82600083612ddb565b61061c826001613434846000196154df565b612ddb565b60006134448261393f565b1561345157506000919050565b60006020830151905061346381613988565b915060086020845103028201915050919050565b6000806000806134878686613b85565b90506134946001866153f2565b94506007600582901c16601f8216601c81106134c25760405162461bcd60e51b81526004016104f6906159a1565b60188160ff1610156134e05790945060ff1692508491506135ed9050565b8060ff1660180361353d5760006134f78989613b85565b90506135046001896153f2565b975060188160ff16101561352a5760405162461bcd60e51b81526004016104f6906159e5565b9195505060ff1692508491506135ed9050565b8060ff166019036135775760006135548989613bd3565b90506135616002896153f2565b97509195505061ffff1692508491506135ed9050565b8060ff16601a036135b357600061358e8989613c14565b905061359b6004896153f2565b97509195505063ffffffff1692508491506135ed9050565b8060ff16601b146135c6576135c6615479565b60006135d28989613c55565b90506135df6008896153f2565b975091955090935085925050505b9250925092565b61360f60405160408082019052606081526000602082015290565b60008451519050600061362282856153f2565b9050856020015181111561363f5761363f866133e383600261592f565b6000600161364f86610100615b03565b61365991906154b9565b905086518281018783198251161781528151841115613676578382525b5096979650505050505050565b61369e60405160408082019052606081526000602082015290565b82518211156136ac57600080fd5b6000845151905060006136bf84836153f2565b905085602001518111156136dc576136dc866133e383600261592f565b600080875180518560208301019350808511156136f7578482525b505050602086015b6020861061373757805182526137166020836153f2565b91506137236020826153f2565b90506137306020876154b9565b95506136ff565b60001960208790036101000a018019825116818451161790925250959695505050505050565b60008060008061376d8686613477565b96509092506001600160401b0316905060ff821660011480613790575060ff8216155b612f625760405162461bcd60e51b81526004016104f690615b6c565b600081516000815181106137c2576137c2614792565b60200101516001600160f81b0319166000036137e557600a825151111592915050565b81516000815181106137f9576137f9614792565b60200101516001600160f81b031916600160f81b148061385a5750815160008151811061382857613828614792565b60200101516001600160f81b0319167f0200000000000000000000000000000000000000000000000000000000000000145b1561386b5781515160151492915050565b815160008151811061387f5761387f614792565b60200101516001600160f81b0319167f0300000000000000000000000000000000000000000000000000000000000000036138c05781515160311492915050565b81516000815181106138d4576138d4614792565b60200101516001600160f81b0319167f040000000000000000000000000000000000000000000000000000000000000003613916576040825151111592915050565b610100825151111592915050565b6000825190506139348383612375565b50611b8c8382612ef8565b60008060208301815b845181101561397d5781519250821561396657506000949350505050565b60209182019161397690826153f2565b9050613948565b506001949350505050565b6000811560018114613b7c57700100000000000000000000000000000000600160401b640100000000620100006101006010600460026000198b019081041790810417908104179081041790810417908104179081041790810417600101926040517ff8f9cbfae6cc78fbefe7cdc3a1793dfcf4f0e8bbd8cec470b6a28a7a5a3e1efd81527ff5ecf1b3e9debc68e1d9cfabc5997135bfb7a7a3938b7b606b5b4b3f2f1f0ffe60208201527ff6e4ed9ff2d6b458eadcdf97bd91692de2d4da8fd2d0ac50c6ae9a827252361660408201527fc8c0b887b0a8a4489c948c7f847c6125746c645c544c444038302820181008ff60608201527ff7cae577eec2a03cf3bad76fb589591debb2dd67e0aa9834bea6925f6a4a2e0e60808201527fe39ed557db96902cd38ed14fad815115c786af479b7e8324736353433727170760a08201527fc976c13bb96e881cb166a933a55e490d9d56952b8d4e801485467d236242260660c08201527f753a6d1b65325d0c552a4d1345224105391a310b29122104190a11030902010060e082015261010081016040527e818283848586878898a8b8c8d8e8f929395969799a9b9d9e9faaeb6bedeeff600160f81b8082880204818160ff0385015104600160ff1b86116101000201965060001985018516613b72576001870196505b50505050506126d7565b50600092915050565b6000613b928260016153f2565b83511015613bb25760405162461bcd60e51b81526004016104f690615bb0565b828281518110613bc457613bc4614792565b602001015160f81c9392505050565b6000613be08260026153f2565b83511015613c005760405162461bcd60e51b81526004016104f690615bb0565b60008260200184015160f01c949350505050565b6000613c218260046153f2565b83511015613c415760405162461bcd60e51b81526004016104f690615bb0565b60008260200184015160e01c949350505050565b6000613c628260086153f2565b83511015613c825760405162461bcd60e51b81526004016104f690615bb0565b60008260200184015160c01c949350505050565b6040518061016001604052806060815260200160006001600160401b0316815260200160001515815260200160608152602001600060070b8152602001600060070b815260200160008152602001600081526020016000815260200160006001600160401b03168152602001613d2b604051608081016040908152606080835260006020840181905291830182905282015290565b905290565b604051806101600160405280613d50604051602081016040526060815290565b815260200160006001600160401b03168152602001600015158152602001613d82604051602081016040526060815290565b8152602001613d9b604051602081016040526060815290565b8152602001613dbb60405160408082019052606081526000602082015290565b8152602001600060070b8152602001600060070b8152602001613def60405160408082019052606081526000602082015290565b8152602001613e0f60405160408082019052606081526000602082015290565b8152602001613d2b60405160408082019052606081526000602082015290565b6040518060400160405280613e5560405160408082019052606081526000602082015290565b8152602001600081525090565b6001600160401b0381165b82525050565b602081016105058284613e62565b634e487b7160e01b600052604160045260246000fd5b601f19601f83011681018181106001600160401b0382111715613ebc57613ebc613e81565b6040525050565b6000613ed26000604051905090565b90506124f28282613e97565b60006001600160401b03821115613ef757613ef7613e81565b601f19601f83011660200192915050565b82818337506000910152565b6000613f27613f2284613ede565b613ec3565b905082815260208101848484011115613f4257613f42600080fd5b613f4d848285613f08565b509392505050565b600082601f830112613f6957613f69600080fd5b81356110cf848260208601613f14565b600060208284031215613f8e57613f8e600080fd5b81356001600160401b03811115613fa757613fa7600080fd5b6110cf84828501613f55565b60006001600160a01b038216610505565b613fcd81613fb3565b8114610d2e57600080fd5b803561050581613fc4565b80613fcd565b803561050581613fe3565b6000806040838503121561400a5761400a600080fd5b60006140168585613fd8565b925050602061402785828601613fe9565b9150509250929050565b80613e6d565b602081016105058284614031565b60006020828403121561405a5761405a600080fd5b60006110cf8484613fe9565b801515613e6d565b6040810161407c8285614031565b6105286020830184614066565b613e6d81613fb3565b602081016105058284614089565b60005b838110156140bb5780820151838201526020016140a3565b50506000910152565b60006140d4826000815192915050565b8084526020840193506140eb8185602086016140a0565b601f01601f19169290920192915050565b6020808252810161052881846140c4565b60008083601f84011261412257614122600080fd5b5081356001600160401b0381111561413c5761413c600080fd5b602083019150836001820283011115612b2757612b27600080fd5b6000806020838503121561416d5761416d600080fd5b82356001600160401b0381111561418657614186600080fd5b6141928582860161410d565b92509250509250929050565b600060408301825184820385526141b582826140c4565b9150506020830151613f4d6020860182614066565b60208082528101610528818461419e565b6001600160401b038116613fcd565b8035610505816141db565b60008060006060848603121561420d5761420d600080fd5b600061421986866141ea565b935050602061422a868287016141ea565b92505060408401356001600160401b0381111561424957614249600080fd5b61425586828701613f55565b9150509250925092565b63ffffffff8116613e6d565b60608101614279828661425f565b6142866020830185613e62565b8181036040830152611ee681846140c4565b613e6d8160070b90565b600060808301825184820385526142b982826140c4565b91505060208301516142ce6020860182613e62565b5060408301516142e16040860182614066565b506060830151613f4d6060860182614066565b600061016083018251848203855261430c82826140c4565b91505060208301516143216020860182613e62565b5060408301516143346040860182614066565b506060830151848203606086015261434c82826140c4565b91505060808301516143616080860182614298565b5060a083015161437460a0860182614298565b5060c083015161438760c0860182614031565b5060e083015161439a60e0860182614031565b506101008301516143af610100860182614031565b506101208301516143c4610120860182613e62565b50610140830151848203610140860152611ee682826142a2565b6020808252810161052881846142f4565b634e487b7160e01b600052602160045260246000fd5b60058110610d2e57610d2e6143ef565b806124f281614405565b600061050582614415565b613e6d8161441f565b60208101610505828461442a565b6101608082528101614453818e6140c4565b9050614462602083018d613e62565b61446f604083018c614066565b8181036060830152614481818b6140c4565b9050614490608083018a614298565b61449d60a0830189614298565b6144aa60c0830188614031565b6144b760e0830187614031565b6144c5610100830186614031565b6144d3610120830185613e62565b8181036101408301526144e681846142a2565b9d9c50505050505050505050505050565b600061016082840312156126d7576126d7600080fd5b60006020828403121561452257614522600080fd5b81356001600160401b0381111561453b5761453b600080fd5b6110cf848285016144f7565b6040820181516145578482614031565b506020820151611b8c6020850182614066565b604081016105058284614547565b6040808252810161458981856140c4565b90506105286020830184614066565b604881526000602082017f50726f626c656d7320636f6e76657274696e672077697468647261772062616c81527f616e636520696e746f2042696720496e742c206d617920636175736520616e2060208201527f6f766572666c6f77000000000000000000000000000000000000000000000000604082015291505b5060600190565b6020808252810161050581614598565b600061463b826000815192915050565b6146498185602086016140a0565b9290920192915050565b6000610528828461462b565b602481526000602082017f6e6f206465616c207075626c697368656420666f72207468697320706965636581527f2063696400000000000000000000000000000000000000000000000000000000602082015291505b5060400190565b602080825281016105058161465f565b60006146d9838584613f08565b50500190565b60006110cf8284866146cc565b634e487b7160e01b600052602260045260246000fd5b60028104600182168061471657607f821691505b6020821081036126d7576126d76146ec565b603281526000602082017f7468652066696c65636f696e206d6574686f642074686174207761732063616c81527f6c6564206973206e6f742068616e646c65640000000000000000000000000000602082015291506146b5565b6020808252810161050581614728565b634e487b7160e01b600052603260045260246000fd5b6000808335601e19368590030181126147c3576147c3600080fd5b8084019250823591506001600160401b038211156147e3576147e3600080fd5b6020830192506001820236038313156147fe576147fe600080fd5b509250929050565b602981526000602082017f6465616c2077697468207468697320706965636543696420616c72656164792081527f7075626c69736865640000000000000000000000000000000000000000000000602082015291506146b5565b6020808252810161050581614806565b600061050561487c8381565b90565b61488883614870565b81546008840282811b60001990911b908116901990911617825550505050565b600061211381848461487f565b8181101561061c576148c86000826148a8565b6001016148b5565b601f821115612113576148ee81600081815281906020902092915050565b6020601f850104810160208510156149035750805b6149156020601f8601048301826148b5565b5050505050565b826001600160401b0381111561493457614934613e81565b61493e8254614702565b6149498282856148d0565b6000601f83116001811461497d57600084156149655750858201355b600019600886021c19811660028602178655506149e3565b601f19841661499786600081815281906020902092915050565b60005b828110156149ba578885013582556020948501946001909201910161499a565b868310156149d657600019601f88166008021c19858a01351682555b6001600288020188555050505b50505050505050565b61211383838361491c565b60008135610505816141db565b60006001600160401b03835b81169019929092169190911792915050565b60006001600160401b038216610505565b614a3c82614a22565b614a47818354614a04565b8255505050565b801515613fcd565b6000813561050581614a4e565b600068ff0000000000000000614a108460401b90565b6000811515610505565b614a8c82614a79565b614a47818354614a63565b613fcd8160070b90565b6000813561050581614a97565b6000610505614ac061487c8460070b90565b60070b90565b614a3c82614aae565b60006fffffffffffffffff0000000000000000614a108460401b90565b614af582614aae565b614a47818354614acf565b6000813561050581613fe3565b600060001983614a10565b614b2182614870565b614a47818354614b0d565b60008235607e1936849003018112614b4657614b46600080fd5b9190910192915050565b600069ff000000000000000000614a108460481b90565b614b7082614a79565b614a47818354614b50565b8082614b8781806147a8565b614b928183866149ec565b50505050600181016020830180614ba8816149f7565b9050614bb48184614a33565b505050600181016040830180614bc981614a56565b9050614bd58184614a83565b505050600181016060830180614bea81614a56565b90506149158184614b67565b61061c8282614b7b565b8082614c0c81806147a8565b614c178183866149ec565b50505050600181016020830180614c2d816149f7565b9050614c398184614a33565b505050600181016040830180614c4e81614a56565b9050614c5a8184614a83565b5050506002810160608301614c6f81856147a8565b614c7a8183866149ec565b50505050600381016080830180614c9081614aa1565b9050614c9c8184614ac6565b5050506003810160a0830180614cb181614aa1565b9050614cbd8184614aec565b5050506004810160c0830180614cd281614b00565b9050614cde8184614b18565b5050506005810160e0830180614cf381614b00565b9050614cff8184614b18565b50505060068101610100830180614d1581614b00565b9050614d218184614b18565b50505060078101610120830180614d37816149f7565b9050614d438184614a33565b505050600881016101408301614d598185614b2c565b6149158184614bf6565b61061c8282614c00565b60006105058260601b90565b600061050582614d6d565b613e6d614d9082613fb3565b614d79565b6000614da18286614031565b602082019150614db18285614d84565b601482019150614dc18284614031565b506020019392505050565b803561050581614a4e565b600060208284031215614dec57614dec600080fd5b60006110cf8484614dcc565b600060208284031215614e0d57614e0d600080fd5b60006110cf84846141ea565b60408101614e278285613e62565b6105286020830184614031565b7f040a00000000000000000000000000000000000000000000000000000000000081526002016000614e668284614d84565b50601401919050565b6000610505825190565b6000614e89826000815192915050565b60208301614e9681614e6f565b925060208210156124d757614eb2600019836020036008021b90565b9092169392505050565b601881526000602082017f70726f706f73616c4964206e6f7420617661696c61626c650000000000000000815291505b5060200190565b6020808252810161050581614ebc565b602781526000602082017f6d73672e73656e646572206e6565647320746f206265206d61726b657420616381527f746f722066303500000000000000000000000000000000000000000000000000602082015291506146b5565b6020808252810161050581614f03565b602a81526000602082017f706965636520636964206d757374206265206164646564206265666f7265206181527f7574686f72697a696e6700000000000000000000000000000000000000000000602082015291506146b5565b6020808252810161050581614f6d565b603b81526000602082017f6465616c206661696c656420706f6c69637920636865636b3a2070726f76696481527f657220616c726561647920636c61696d65642074686973206369640000000000602082015291506146b5565b6020808252810161050581614fd7565b601c81526000602082017f76657269666965645f6465616c20706172616d206d69736d617463680000000081529150614eec565b6020808252810161050581615041565b604181526000602082017f49737375657320636f6e76657274696e672075696e7432353620746f2042696781527f496e742c206d6179206e6f7420686176652061636375726174652076616c756560208201527f730000000000000000000000000000000000000000000000000000000000000060408201529150614614565b6020808252810161050581615085565b602981526000602082017f73746f726167652070726963652067726561746572207468616e20726571756581527f737420616d6f756e740000000000000000000000000000000000000000000000602082015291506146b5565b6020808252810161050581615115565b602d81526000602082017f636c69656e7420636f6c6c61746572616c2067726561746572207468616e207281527f65717565737420616d6f756e7400000000000000000000000000000000000000602082015291506146b5565b602080825281016105058161517f565b600c81526000602082017f496e76616c69642043424f52000000000000000000000000000000000000000081529150614eec565b60208082528101610505816151e9565b61523b826000815192915050565b6001600160401b0381111561525257615252613e81565b61525c8254614702565b6152678282856148d0565b6020601f83116001811461529c5760008415615284578287015190505b600019600886021c1981166002860217865550615302565b601f1984166152b686600081815281906020902092915050565b60005b828110156152d957848901518255602094850194600190920191016152b9565b868310156152f55784890151600019601f89166008021c191682555b6001600288020188555050505b505050505050565b602881526000602082017f6d73672e73656e646572206e6565647320746f2062652064617461636170206181527f63746f7220663037000000000000000000000000000000000000000000000000602082015291506146b5565b602080825281016105058161530a565b601181526000602082017f446174614361702052656365697665642100000000000000000000000000000081529150614eec565b6020808252810161050581615374565b60008082525b5060010190565b60006153d0826153b8565b9150610528828461462b565b634e487b7160e01b600052601160045260246000fd5b80820180821115610505576105056153dc565b60006154118284614031565b50602001919050565b613e6d81614a22565b60c081016154318289613e62565b61543e6020830188614031565b61544b6040830187613e62565b6154586060830186613e62565b818103608083015261546a81856140c4565b9050611dfc60a083018461541a565b634e487b7160e01b600052600160045260246000fd5b634e487b7160e01b600052601260045260246000fd5b6000826154b4576154b461548f565b500690565b81810381811115610505576105056153dc565b600060001982036153be576153be6153dc565b60006154eb8260070b90565b91506154f78360070b90565b925050818103677fffffffffffffff198112677fffffffffffffff82131715610505576105056153dc565b6000808252600182019150610528828461462b565b60408101614e278285614031565b60008151905061050581613fe3565b600081519050610505816141db565b6000615571613f2284613ede565b90508281526020810184848401111561558c5761558c600080fd5b613f4d8482856140a0565b600082601f8301126155ab576155ab600080fd5b81516110cf848260208601615563565b6000806000606084860312156155d3576155d3600080fd5b60006155df8686615545565b93505060206155f086828701615554565b92505060408401516001600160401b0381111561560f5761560f600080fd5b61425586828701615597565b602e81526000602082017f696e76616c6964206d616a20286578706563746564204d616a546167206f722081527f4d616a42797465537472696e6729000000000000000000000000000000000000602082015291506146b5565b602080825281016105058161561b565b8181028060008312600160ff1b851416156156a2576156a26153dc565b82820584148315176156b6576156b66153dc565b5092915050565b601f81526000602082017f696e76616c6964206d616a20286578706563746564204d616a4172726179290081529150614eec565b60208082528101610505816156bd565b602881526000602082017f6578706563746564206d616a6f72207479706520746167207768656e2070617281527f73696e6720636964000000000000000000000000000000000000000000000000602082015291506146b5565b6020808252810161050581615701565b60208082527f657870656374656420746167203432207768656e2070617273696e672063696491019081526000614eec565b602080825281016105058161576b565b602c81526000602082017f6578706563746564206669727374206279746520746f2062652030207768656e81527f2070617273696e67206369640000000000000000000000000000000000000000602082015291506146b5565b60208082528101610505816157ad565b602581526000602082017f696e76616c6964206d616a20286578706563746564204d616a556e7369676e6581527f64496e7429000000000000000000000000000000000000000000000000000000602082015291506146b5565b6020808252810161050581615817565b601f81526000602082017f696e76616c6964206d616a20286578706563746564204d616a4f74686572290081529150614eec565b6020808252810161050581615881565b603581526000602082017f696e76616c6964206d616a20286578706563746564204d616a4279746553747281527f696e67206f72204d616a54657874537472696e67290000000000000000000000602082015291506146b5565b60208082528101610505816158c5565b8181028082158382048514176156b6576156b66153dc565b602581526000602082017f63616e6e6f742068616e646c652068656164657273207769746820657874726181527f203e203237000000000000000000000000000000000000000000000000000000602082015291506146b5565b6020808252810161050581615947565b600c81526000602082017f696e76616c69642063626f72000000000000000000000000000000000000000081529150614eec565b60208082528101610505816159b1565b80825b6001851115615a3457808604811115615a1357615a136153dc565b6001851615615a2157908102905b8002615a2d8560011c90565b94506159f8565b94509492505050565b600082615a4c57506001610528565b81615a5957506000610528565b8160018114615a6f5760028114615a7957615aa6565b6001915050610528565b60ff841115615a8a57615a8a6153dc565b8360020a915084821115615aa057615aa06153dc565b50610528565b5060208310610133831016604e8410600b8410161715615ad9575081810a83811115615ad457615ad46153dc565b610528565b615ae684848460016159f5565b92509050818404811115615afc57615afc6153dc565b0292915050565b60006105286000198484615a3d565b603581526000602082017f696e76616c6964206d616a20286578706563746564204d616a5369676e65644981527f6e74206f72204d616a556e7369676e6564496e74290000000000000000000000602082015291506146b5565b6020808252810161050581615b12565b601481526000602082017f736c6963696e67206f7574206f662072616e676500000000000000000000000081529150614eec565b6020808252810161050581615b7c56fea2646970667358221220fa1ed04421fc46af5688b833cc2a1931f0ce664c79dc503984c40afde48a460a64736f6c63430008110033",
  "devdoc": {
    "kind": "dev",
    "methods": {},
    "version": 1
  },
  "userdoc": {
    "errors": {
      "ActorError(int256)": [
        {
          "notice": "the called actor returned an error as part of its expected behaviour"
        }
      ],
      "ActorNotFound()": [
        {
          "notice": "the actor is not found"
        }
      ],
      "FailToCallActor()": [
        {
          "notice": "an error happened trying to call the actor"
        }
      ],
      "InvalidCodec(uint64)": [
        {
          "notice": "the codec received is not valid"
        }
      ],
      "InvalidResponseLength()": [
        {
          "notice": "the response received is not correct. In some case no response is expected and we received one, or a response was indeed expected and we received none."
        }
      ],
      "NotEnoughBalance(uint256,uint256)": [
        {
          "notice": "the smart contract has no enough balance to transfer"
        }
      ]
    },
    "kind": "user",
    "methods": {},
    "version": 1
  },
  "storageLayout": {
    "storage": [
      {
        "astId": 8335,
        "contract": "contracts/DealClient.sol:DealClient",
        "label": "dealRequestIdx",
        "offset": 0,
        "slot": "0",
        "type": "t_mapping(t_bytes32,t_struct(RequestIdx)8204_storage)"
      },
      {
        "astId": 8339,
        "contract": "contracts/DealClient.sol:DealClient",
        "label": "dealRequests",
        "offset": 0,
        "slot": "1",
        "type": "t_array(t_struct(DealRequest)8233_storage)dyn_storage"
      },
      {
        "astId": 8344,
        "contract": "contracts/DealClient.sol:DealClient",
        "label": "pieceRequests",
        "offset": 0,
        "slot": "2",
        "type": "t_mapping(t_bytes_memory_ptr,t_struct(RequestId)8199_storage)"
      },
      {
        "astId": 8349,
        "contract": "contracts/DealClient.sol:DealClient",
        "label": "pieceProviders",
        "offset": 0,
        "slot": "3",
        "type": "t_mapping(t_bytes_memory_ptr,t_struct(ProviderSet)8209_storage)"
      },
      {
        "astId": 8353,
        "contract": "contracts/DealClient.sol:DealClient",
        "label": "pieceDeals",
        "offset": 0,
        "slot": "4",
        "type": "t_mapping(t_bytes_memory_ptr,t_uint64)"
      },
      {
        "astId": 8358,
        "contract": "contracts/DealClient.sol:DealClient",
        "label": "pieceStatus",
        "offset": 0,
        "slot": "5",
        "type": "t_mapping(t_bytes_memory_ptr,t_enum(Status)8330)"
      },
      {
        "astId": 8374,
        "contract": "contracts/DealClient.sol:DealClient",
        "label": "owner",
        "offset": 0,
        "slot": "6",
        "type": "t_address"
      }
    ],
    "types": {
      "t_address": {
        "encoding": "inplace",
        "label": "address",
        "numberOfBytes": "20"
      },
      "t_array(t_struct(DealRequest)8233_storage)dyn_storage": {
        "base": "t_struct(DealRequest)8233_storage",
        "encoding": "dynamic_array",
        "label": "struct DealRequest[]",
        "numberOfBytes": "32"
      },
      "t_bool": {
        "encoding": "inplace",
        "label": "bool",
        "numberOfBytes": "1"
      },
      "t_bytes32": {
        "encoding": "inplace",
        "label": "bytes32",
        "numberOfBytes": "32"
      },
      "t_bytes_memory_ptr": {
        "encoding": "bytes",
        "label": "bytes",
        "numberOfBytes": "32"
      },
      "t_bytes_storage": {
        "encoding": "bytes",
        "label": "bytes",
        "numberOfBytes": "32"
      },
      "t_enum(Status)8330": {
        "encoding": "inplace",
        "label": "enum DealClient.Status",
        "numberOfBytes": "1"
      },
      "t_int64": {
        "encoding": "inplace",
        "label": "int64",
        "numberOfBytes": "8"
      },
      "t_mapping(t_bytes32,t_struct(RequestIdx)8204_storage)": {
        "encoding": "mapping",
        "key": "t_bytes32",
        "label": "mapping(bytes32 => struct RequestIdx)",
        "numberOfBytes": "32",
        "value": "t_struct(RequestIdx)8204_storage"
      },
      "t_mapping(t_bytes_memory_ptr,t_enum(Status)8330)": {
        "encoding": "mapping",
        "key": "t_bytes_memory_ptr",
        "label": "mapping(bytes => enum DealClient.Status)",
        "numberOfBytes": "32",
        "value": "t_enum(Status)8330"
      },
      "t_mapping(t_bytes_memory_ptr,t_struct(ProviderSet)8209_storage)": {
        "encoding": "mapping",
        "key": "t_bytes_memory_ptr",
        "label": "mapping(bytes => struct ProviderSet)",
        "numberOfBytes": "32",
        "value": "t_struct(ProviderSet)8209_storage"
      },
      "t_mapping(t_bytes_memory_ptr,t_struct(RequestId)8199_storage)": {
        "encoding": "mapping",
        "key": "t_bytes_memory_ptr",
        "label": "mapping(bytes => struct RequestId)",
        "numberOfBytes": "32",
        "value": "t_struct(RequestId)8199_storage"
      },
      "t_mapping(t_bytes_memory_ptr,t_uint64)": {
        "encoding": "mapping",
        "key": "t_bytes_memory_ptr",
        "label": "mapping(bytes => uint64)",
        "numberOfBytes": "32",
        "value": "t_uint64"
      },
      "t_string_storage": {
        "encoding": "bytes",
        "label": "string",
        "numberOfBytes": "32"
      },
      "t_struct(DealRequest)8233_storage": {
        "encoding": "inplace",
        "label": "struct DealRequest",
        "members": [
          {
            "astId": 8211,
            "contract": "contracts/DealClient.sol:DealClient",
            "label": "piece_cid",
            "offset": 0,
            "slot": "0",
            "type": "t_bytes_storage"
          },
          {
            "astId": 8213,
            "contract": "contracts/DealClient.sol:DealClient",
            "label": "piece_size",
            "offset": 0,
            "slot": "1",
            "type": "t_uint64"
          },
          {
            "astId": 8215,
            "contract": "contracts/DealClient.sol:DealClient",
            "label": "verified_deal",
            "offset": 8,
            "slot": "1",
            "type": "t_bool"
          },
          {
            "astId": 8217,
            "contract": "contracts/DealClient.sol:DealClient",
            "label": "label",
            "offset": 0,
            "slot": "2",
            "type": "t_string_storage"
          },
          {
            "astId": 8219,
            "contract": "contracts/DealClient.sol:DealClient",
            "label": "start_epoch",
            "offset": 0,
            "slot": "3",
            "type": "t_int64"
          },
          {
            "astId": 8221,
            "contract": "contracts/DealClient.sol:DealClient",
            "label": "end_epoch",
            "offset": 8,
            "slot": "3",
            "type": "t_int64"
          },
          {
            "astId": 8223,
            "contract": "contracts/DealClient.sol:DealClient",
            "label": "storage_price_per_epoch",
            "offset": 0,
            "slot": "4",
            "type": "t_uint256"
          },
          {
            "astId": 8225,
            "contract": "contracts/DealClient.sol:DealClient",
            "label": "provider_collateral",
            "offset": 0,
            "slot": "5",
            "type": "t_uint256"
          },
          {
            "astId": 8227,
            "contract": "contracts/DealClient.sol:DealClient",
            "label": "client_collateral",
            "offset": 0,
            "slot": "6",
            "type": "t_uint256"
          },
          {
            "astId": 8229,
            "contract": "contracts/DealClient.sol:DealClient",
            "label": "extra_params_version",
            "offset": 0,
            "slot": "7",
            "type": "t_uint64"
          },
          {
            "astId": 8232,
            "contract": "contracts/DealClient.sol:DealClient",
            "label": "extra_params",
            "offset": 0,
            "slot": "8",
            "type": "t_struct(ExtraParamsV1)8242_storage"
          }
        ],
        "numberOfBytes": "320"
      },
      "t_struct(ExtraParamsV1)8242_storage": {
        "encoding": "inplace",
        "label": "struct ExtraParamsV1",
        "members": [
          {
            "astId": 8235,
            "contract": "contracts/DealClient.sol:DealClient",
            "label": "location_ref",
            "offset": 0,
            "slot": "0",
            "type": "t_string_storage"
          },
          {
            "astId": 8237,
            "contract": "contracts/DealClient.sol:DealClient",
            "label": "car_size",
            "offset": 0,
            "slot": "1",
            "type": "t_uint64"
          },
          {
            "astId": 8239,
            "contract": "contracts/DealClient.sol:DealClient",
            "label": "skip_ipni_announce",
            "offset": 8,
            "slot": "1",
            "type": "t_bool"
          },
          {
            "astId": 8241,
            "contract": "contracts/DealClient.sol:DealClient",
            "label": "remove_unsealed_copy",
            "offset": 9,
            "slot": "1",
            "type": "t_bool"
          }
        ],
        "numberOfBytes": "64"
      },
      "t_struct(ProviderSet)8209_storage": {
        "encoding": "inplace",
        "label": "struct ProviderSet",
        "members": [
          {
            "astId": 8206,
            "contract": "contracts/DealClient.sol:DealClient",
            "label": "provider",
            "offset": 0,
            "slot": "0",
            "type": "t_bytes_storage"
          },
          {
            "astId": 8208,
            "contract": "contracts/DealClient.sol:DealClient",
            "label": "valid",
            "offset": 0,
            "slot": "1",
            "type": "t_bool"
          }
        ],
        "numberOfBytes": "64"
      },
      "t_struct(RequestId)8199_storage": {
        "encoding": "inplace",
        "label": "struct RequestId",
        "members": [
          {
            "astId": 8196,
            "contract": "contracts/DealClient.sol:DealClient",
            "label": "requestId",
            "offset": 0,
            "slot": "0",
            "type": "t_bytes32"
          },
          {
            "astId": 8198,
            "contract": "contracts/DealClient.sol:DealClient",
            "label": "valid",
            "offset": 0,
            "slot": "1",
            "type": "t_bool"
          }
        ],
        "numberOfBytes": "64"
      },
      "t_struct(RequestIdx)8204_storage": {
        "encoding": "inplace",
        "label": "struct RequestIdx",
        "members": [
          {
            "astId": 8201,
            "contract": "contracts/DealClient.sol:DealClient",
            "label": "idx",
            "offset": 0,
            "slot": "0",
            "type": "t_uint256"
          },
          {
            "astId": 8203,
            "contract": "contracts/DealClient.sol:DealClient",
            "label": "valid",
            "offset": 0,
            "slot": "1",
            "type": "t_bool"
          }
        ],
        "numberOfBytes": "64"
      },
      "t_uint256": {
        "encoding": "inplace",
        "label": "uint256",
        "numberOfBytes": "32"
      },
      "t_uint64": {
        "encoding": "inplace",
        "label": "uint64",
        "numberOfBytes": "8"
      }
    }
  }
}